:020000040800F2
:1000000000470020E90200083121000823200008F1
:100010002D2100085F050008F524000800000000FD
:10002000000000000000000000000000290200089D
:100030004D070008000000008502000809230008A1
:100040000303000803030008030300080303000878
:100050000303000803030008030300080303000868
:100060000303000803030008030300080303000858
:100070000303000803030008030300080303000848
:100080000303000803030008030300080303000838
:1000900065050008030300080303000803030008C4
:1000A0000303000803030008030300080303000818
:1000B0000303000803030008030300080303000808
:1000C00003030008030300080303000803030008F8
:1000D00003030008030300080303000803030008E8
:1000E00003030008030300080303000803030008D8
:1000F00003030008052400080303000803030008A5
:1001000003030008030300080303000803030008B7
:1001100003030008030300080303000803030008A7
:100120000303000803030008030300080303000897
:100130000303000803030008030300080303000887
:100140000303000803030008030300080303000877
:100150000303000803030008030300080303000867
:100160000303000803030008030300080303000857
:100170000303000803030008030300080000000055
:10018000030300080303000800F002F800F03CF845
:100190000AA090E8000C82448344AAF10107DA45E2
:1001A00001D100F031F8AFF2090EBAE80F0013F0F8
:1001B000010F18BFFB1A43F0010318474048000025
:1001C00060480000103A24BF78C878C1FAD85207B6
:1001D00024BF30C830C144BF04680C6070470000C1
:1001E0000023002400250026103A28BF78C1FBD840
:1001F000520728BF30C148BF0B6070471FB504F0DD
:1002000042FB1FBD10B510BD00F074F91146FFF799
:10021000F5FF02F029FE00F092F903B4FFF7F2FFB8
:1002200003BC00F095F900002C4B19680868B0E891
:10023000F04F80F30988BFF36F8F4FF0000080F319
:10024000118870470000000008480068006880F3CB
:1002500008884FF0000080F3148862B661B6BFF3DF
:100260004F8FBFF36F8F00DF00BF00BF08ED00E0CE
:10027000DFF80C00016841F470010160704700BFB5
:1002800088ED00E0EFF30980BFF36F8F134B1A681E
:100290001EF0100F08BF20ED108A20E9F04F10600B
:1002A00009B44FF0500080F31188BFF34F8FBFF3B4
:1002B0006F8F03F0BDFA4FF0000080F3118809BC86
:1002C00019680868B0E8F04F1EF0100F08BFB0ECD6
:1002D000108A80F30988BFF36F8F704728000020D1
:1002E000EFF3058070470000094880470948004740
:1002F000FEE7FEE7FEE7FEE7FEE7FEE7FEE7FEE7D6
:10030000FEE7FEE704480549054A064B7047000032
:10031000F123000889010008004100200047002067
:10032000004300200043002053EA020C00F06980E3
:100330002DE9F04B4FF00006002B1FBFB3FA83F5F9
:1003400003FA05F424FA05F65E4012BF1643B2FA2A
:1003500082F502FA05F4C5F120051EBF22FA05FC5C
:1003600044EA0C04203556EA044C4FEA144418BF02
:10037000641C4FF000084FF00009904271EB030C31
:1003800039D3002919BFB1FA81F701FA07F6B0FA9B
:1003900080F700FA07F6C7F120071EBF20FA07FC16
:1003A00046EA0C062037B6FBF4FCA7EB0507103F26
:1003B00007F01F0BCBF120060CFA0BFB2CFA06F60C
:1003C00044BFB3460026202FA4BF5E464FF0000B6B
:1003D0005BEA060C08BF4FF0010B19EB0B09ABFBF6
:1003E000027C48EB0608C01B06FB02CC0BFB03CCCF
:1003F00071EB0C01C1E70B46024641464846BDE899
:10040000F08B13B54FF000004FF00001AFF3008008
:10041000BDE81C40704710B5203AC0F00B80B1E831
:100420001850203AA0E81850B1E81850A0E8185029
:10043000BFF4F5AF5FEA027C24BFB1E81850A0E832
:10044000185044BF18C918C0BDE810405FEA827C4C
:1004500024BF51F8043B40F8043B08BF7047D20763
:1004600028BF31F8023B48BF11F8012B28BF20F804
:10047000023B48BF00F8012B70474FF0000200B567
:10048000134694469646203922BFA0E80C50A0E8B7
:100490000C50B1F12001BFF4F7AF090728BFA0E865
:1004A0000C5048BF0CC05DF804EB890028BF40F831
:1004B000042B08BF704748BF20F8022B11F0804F73
:1004C00018BF00F8012B704770477047704710B590
:1004D00000F008F8006810BD10B5044600F002F8FE
:1004E000046010BD004870479C40002000487047E1
:1004F0009C4000207546FFF7F9FFAE4605006946AF
:10050000534620F00700854618B020B5FFF7FAFEE5
:10051000BDE820404FF000064FF000074FF0000804
:100520004FF0000B21F00701AC46ACE8C009ACE885
:10053000C009ACE8C009ACE8C0098D46704710B5E9
:100540000446AFF300802046BDE81040FFF765BECB
:1005500001491820ABBEFEE726000200704700BF2D
:10056000FEE7000010B5024800F041FB10BD00009E
:100570003C0300202DED0A8B96B0002062490880D4
:1005800062484342624A5142B2EE0A1ADFED610A02
:10059000B1EE040A00900CA801F0CCFD5E48434285
:1005A0005E4A51429FED5E1ADFED5D0AB5EE000A2C
:1005B000009002A801F0BEFD00BF00F027FF00EE92
:1005C000100AB8EE400ADFED570A20EE200ADFEDF0
:1005D000560A80EE201A11EE105A284604F0E2F86E
:1005E00041EC1C0BB0EE4C0AF0EE6C0A01F0B8FFC7
:1005F000B0EE40BAF0EE60BA9FED4C0B53EC102B0E
:1006000051EC1B0B03F0A4FE41EC1A0B9FED470BC2
:1006100053EC102B03F0FAFB41EC190B03F0C4FB75
:1006200044490860084690ED000AB5EEC00AF1EEB4
:1006300010FA07D290ED000ADFED3F0A30EE200AF3
:1006400080ED000A3B4890ED000ADFED3C0A20EE09
:10065000200ADFED390A80EE201ABDEEC10A10EE45
:10066000100A00B23649088036488088B1F9001077
:100670000C1AB4F5805F03DDA4F5F854FF3C05E0E7
:1006800014F5805F02DA41F6FF7004442D4880883B
:10069000204400EE100AB8EEC08A2A48808800EE96
:1006A000900AF8EE600AB0EE600AF0EE480A02A87E
:1006B00001F05EFD244880ED000A2248B0F90600F2
:1006C00000EE900AF8EEE00AB0EE600A1E48D0EDA7
:1006D000000A0CA801F04CFD0B48B0F9000000EE38
:1006E000900AF8EEE00A30EE200ABDEEC00A10EEE5
:1006F000100A00B204490880084600F02BF80120D7
:1007000002F0C7FB59E700000400002068C5FFFFA6
:1007100018FCFFFF17B7D138D4FEFFFFF0D8FFFF5A
:1007200000000000C3F5C84000007A44000000004B
:1007300000806640100000200000B44300F8FF4530
:1007400014000020900000200C000020704772B6BA
:1007500000BFFEE710B58AB004460020089009905B
:1007600040F2FF10029000200390049005900820B2
:10077000069000208DF81C002088000A8DF82000CB
:1007800020788DF821006088000A8DF82200A0787A
:100790008DF82300A088000A8DF8240020798DF8B8
:1007A0002500E088000A8DF82600A0798DF8270042
:1007B00001AB08AA02A9024800F019F80AB010BD5E
:1007C0003C03002010B5024692F82030012B01D0E6
:1007D000022B06D11068406908431468606100204C
:1007E00010BD506A40F4802050620120F8E7F0B557
:1007F00004460D461E4694F8207020688368A86859
:1008000000B900E000BF012F01D0022F7DD103F01D
:10081000806030B903F0006018B903F08050002800
:100820007ED0C3F30161012088403060A86860B9C0
:10083000B5F800C0E86840EA4C5C206800F5C0707C
:1008400000EB0110C0F800C00FE0D5E901C040EA9C
:10085000CC00D5F80CC040EA0C00D4F800C00CF570
:10086000C07C0CEB011CCCF80000D5F810C020684F
:1008700000F5C07000EB0110C0F804C0287D01280D
:100880000ED1206800F5C07000EB0110406840F404
:10089000807C206800F5C07000EB0110C0F804C037
:1008A000D079000692F806C040EA0C4092F805C0E4
:1008B00040EA0C2092F804C040EA0C00D4F800C0D2
:1008C0000CF5C07C0CEB011CCCF80C00D0780006B9
:1008D00092F802C040EA0C4092F801C040EA0C20B5
:1008E00092F800C040EA0C00D4F800C00CF5C07CBF
:1008F0000CEB011CCCF80800206800F5C07000EB80
:100900000110006840F0010C01E00FE008E02068F1
:1009100000F5C07000EB0110C0F800C00020F0BD71
:10092000606A40F4001060620120F8E7606A40F4F9
:10093000802060620120F2E7F0B504460A4694F890
:100940002050012D01D0022D7ED1424901F50071C8
:10095000086840F001000860086820F47C500860D6
:100960000868566A40EA06200860107D00F01F06FD
:10097000012000FA06F3C8699843C861A1F5007127
:10098000D069C8B9D1F80C029843C1F80C0290881C
:1009900080B2968940EA064601F51070576940F822
:1009A0003760108880B2168940EA064601F510705B
:1009B000576900EBC7004660D069012819D1D1F80A
:1009C0000C021843C1F80C02908880B2168840EAE5
:1009D000064601F51070576940F83760908980B27B
:1009E000168940EA064601F51070576900EBC7000A
:1009F0004660906928B9D1F804029843C1F804020E
:100A000004E0D1F804021843C1F80402106928B9BF
:100A1000D1F814029843C1F8140204E0D1F814028A
:100A20001843C1F81402106A012804D1D1F81C023D
:100A30001843C1F81C02D1F8000220F00100C1F8EF
:100A400000020020F0BDFFE7606A40F48020606291
:100A50000120F7E700640040704770B5044694F841
:100A60002050012D01D0022D7DD151B92068C068E0
:100A700000F0030080B9606A40F400106062012059
:100A800070BD2068006900F0030028B9606A40F476
:100A9000001060620120F3E7206800F5D87000EBD9
:100AA0000110006800F004009060906840B9206870
:100AB00000F5D87000EB01100068400D106007E0F1
:100AC000206800F5D87000EB01100068C008506085
:100AD000206800F5D87000EB0110006800F00200FB
:100AE000D060206800F5D87000EB0110406800F07D
:100AF0000F00082802D30820106108E0206800F5E4
:100B0000D87000EB0110406800F00F001061206801
:100B100000F5D87000EB0110406800F47F40000A37
:100B20009061206800F5D87000EB01104068000C5F
:100B30005061206800F5D87000EB011080681870D3
:100B4000206800F5D87000EB0110806800F47F4049
:100B5000000A5870206800F5D87000EB011080681A
:100B600000F47F0000E03CE0000C9870206800F585
:100B7000D87000EB01108068000ED870206800F576
:100B8000D87000EB0110C0681871206800F5D870AB
:100B900000EB0110C06800F47F40000A5871206823
:100BA00000F5D87000EB0110C06800F47F00000C65
:100BB0009871206800F5D87000EB0110C068000E35
:100BC000D87131B92068C06840F020002668F06014
:100BD00005E02068006940F02000266830610020B0
:100BE0004EE7606A40F480206062012048E72DE90A
:100BF000F05F04460025206846692068D0F804901C
:100C0000206887682068D0F80CA02068D0F810B061
:100C10002068D0F8188006F00100002855D007F0B1
:100C20000100C0B101202168886007F0020018B1FE
:100C3000204600F0EAFA0EE007F0040010B145F497
:100C4000006508E007F0080010B145F4805502E0A7
:100C5000204600F0D9FA07F48070C8B14FF48070D4
:100C60002168886007F4007018B1204600F0CFFAC0
:100C70000EE007F4806010B145F4005508E007F479
:100C8000006010B145F4804502E0204600F0BEFA55
:100C900007F48030C8B14FF480302168886007F4D1
:100CA000003018B1204600F0B4FA0EE007F48020BE
:100CB00010B145F4004508E007F4002010B145F4F8
:100CC000803502E0204600F0A3FA06F0080038B1B3
:100CD0000AF0100020B145F4007510202168C860AA
:100CE00006F0040040B10AF0080028B1082021688D
:100CF000C860204600F0A8F906F0020038B120686C
:100D0000C06800F0030010B1204600F09FF906F023
:100D1000400038B10BF0100020B145F48065102080
:100D20002168086106F0200040B10BF0080028B1EE
:100D3000082021680861204600F034FA06F010000F
:100D400038B12068006900F0030010B1204600F0BF
:100D50002AFA06F4003040B109F0100028B1102042
:100D600021684860204600F01FFA06F4803040B148
:100D700009F0080028B1082021684860204600F0EA
:100D800049FA06F4004088B309F0040078B306F489
:100D9000807020B108F0010008B145F0010506F4AB
:100DA000007020B108F0020008B145F0020506F419
:100DB000806020B108F0040008B145F0040506F495
:100DC0000060A0B108F0700088B108F07000402801
:100DD00017D006DC10280BD020280CD0302819D1D1
:100DE0000CE0502810D0602814D110E01DE019E06C
:100DF00045F008050FE045F010050CE045F0200532
:100E000009E045F0400506E045F0800503E045F4C3
:100E1000807500E000BF00BF2068806920F070008E
:100E2000216888610420216848602DB1606A2843E8
:100E300060622046FFF710FEBDE8F09F70B50446E3
:100E40000CB9012070BD94F8200010B9204600F0C4
:100E5000AFF82068006840F001002168086000F0E9
:100E6000D5FA05460DE000F0D1FA401B0A2808D952
:100E7000606A40F400306062052084F820000120A0
:100E8000E0E72068406800F001000028EBD020680F
:100E9000006820F002002168086000F0B7FA0546FB
:100EA0000DE000F0B3FA401B0A2808D9606A40F44C
:100EB00000306062052084F820000120C2E720682D
:100EC000406800F002000028EBD1207E012806D106
:100ED0002068006840F080002168086005E0206814
:100EE000006820F0800021680860607E012806D13B
:100EF0002068006840F040002168086005E0206834
:100F0000006820F0400021680860A07E012806D11A
:100F10002068006840F020002168086005E0206833
:100F2000006820F0200021680860E07E012806D1DA
:100F30002068006820F010002168086005E0206843
:100F4000006840F0100021680860207F012806D169
:100F50002068006840F008002168086005E020680B
:100F6000006820F0080021680860607F012806D131
:100F70002068006840F004002168086005E02068EF
:100F8000006820F0040021680860D4E902010843E9
:100F900021690843616908436168491E0843216863
:100FA000C86100206062012084F82000002049E729
:100FB00010B586B00446142101A8FFF75EFA1F4958
:100FC0002068884237D100BF002000901C4800688C
:100FD00040F000701A4908600846006800F0007090
:100FE000009000BF00BF00BF0020009014481038E0
:100FF000006840F00800124910390860084600688F
:1010000000F00800009000BF00BF03200190022004
:10101000029000200390032004900920059001A96C
:10102000084800F0F9F800220521142000F0B6FA73
:10103000142000F09FFA06B010BD000000640040CC
:1010400040380240000C02407047000030B589B0C3
:1010500004465248844278D16B4602AA00212046B9
:10106000FFF7FBFC002871D1029DA5F2052030B1ED
:10107000012826D0022846D0032821D167E000F0BD
:10108000C5F9474908609DF801009DF8001040EA45
:101090000120434988809DF803009DF8021040EA32
:1010A000012000B23E49C8809DF805009DF804105B
:1010B00040EA012000B23A4908819DF806004881C3
:1010C00067E000F0A3F9364988619DF801009DF8BA
:1010D000001040EA0121324801829DF803009DF88A
:1010E000021040EA012001B22D4841829DF805001E
:1010F0009DF8041040EA012001B2294881829DF840
:101100000610C18245E000F081F9254988619DF80B
:1011100001009DF8001040EA0121214881839DF8DB
:1011200003009DF8021040EA012001B21C48C1836F
:101130009DF805009DF8041040EA012001B218480E
:1011400001849DF80610418423E025E023E000F0AF
:101150005DF9134948629DF801009DF8001040EACE
:1011600001210F4801859DF803009DF8021040EA17
:10117000012001B20A4841859DF805009DF8041040
:1011800040EA012001B2064881859DF80610C1851C
:1011900000BF00BF00BF00BF09B030BD3C0300204E
:1011A0009000002070477047704770B5044694F86F
:1011B0002000012822D1022084F820002068006845
:1011C00020F001002168086000F020F905460DE0DC
:1011D00000F01CF9401B0A2808D9606A40F400306E
:1011E0006062052084F82000012070BD20684068FE
:1011F00000F001000028EBD16062F6E7606A40F47D
:10120000002060620120F0E7704770477047704728
:101210007047704770470000F8B502460B4600253E
:10122000002400200021D6E0012606FA01F51E6800
:1012300006EA0504AC4274D11E7906F00306012EBD
:1012400004D01E7906F00306022E13D190684F00D9
:101250000326BE40B0434F00DE68BE40304390607E
:10126000506801268E40B0431E79C6F300168E40AA
:10127000304350601E7906F00306032E09D0D06873
:101280004F000326BE40B0434F009E68BE4030432F
:10129000D0601E7906F00306022E13D1CF0802F1AA
:1012A000200656F827004E07F70E0F26BE40B04323
:1012B0004F07FF0E1E69BE403043CF0802F12006E3
:1012C00046F8270010684F000326BE40B0431E7941
:1012D00006F003064F00BE40304310605E6806F41F
:1012E0004036002E76D000BF002600963C4E366871
:1012F00046F480463A4F3E603E46366806F48046E5
:10130000009600BF00BF374E8F0856F827008E07A3
:10131000370F0F26BE40B043334EB24202D10026F3
:1013200024E057E0314EB24201D101261EE0304E9A
:10133000B24201D1022619E02E4EB24201D103265B
:1013400014E02D4EB24201D104260FE02B4EB242E2
:1013500001D105260AE02A4EB24201D1062605E057
:10136000284EB24201D1072600E008268F073F0F22
:10137000BE4030431B4E8F0846F82700224E30688F
:10138000A0435E6806F4801606B120431E4E30600E
:10139000361D3068A0435E6806F4001606B120438F
:1013A000194E361D3060184E361F3068A0435E68F7
:1013B00006F4003606B12043134E361F3060361F48
:1013C0003068A0435E6806F4803606B120430E4EB6
:1013D000083E3060491C1029FFF426AFF8BD00001C
:1013E0004438024008380140000002400004024036
:1013F00000080240000C02400010024000140240AD
:1014000000180240001C0240083C014001480068EE
:10141000704700001800002003480068034909785D
:10142000084401490860704718000020200000208F
:1014300010B50D48006840F400700B49086008467C
:10144000006840F4806008600846006840F48070DE
:101450000860032000F0E0F80F2000F007F800F02B
:101460005FF8002010BD0000003C02402DE9F04173
:1014700088B004460027B84600BF002001902348EA
:10148000006840F48070214908600846006800F454
:101490008070019000BF00BF02A903A800F092F97C
:1014A000069F1FB900F0B6F9054602E000F0B2F958
:1014B00045001748B5FBF0F0A0F1010815481649A2
:1014C000086040F2E7311448C160C0F80480002190
:1014D00001618160816100F055FC064696B90E48B5
:1014E00000F084FC06466EB92D2000F043F8102C65
:1014F00007D2002221462D2000F050F80748046052
:1015000000E00126304608B0BDE8F08140380240D6
:1015100040420F0000200040640300201C00002017
:1015200008B500BF002000901148006840F48040DA
:101530000F4908600846006800F48040009000BF32
:1015400000BF00BF00200090081F006840F08050DE
:10155000091F08600846006800F08050009000BF36
:1015600000BF00220F21901E00F018F808BD0000F7
:10157000443802400146084600280DDB00BF00BF8A
:1015800000F01F0301229A4043099B0003F1E0236E
:10159000C3F8002100BF00BF00BF70472DE9F05F16
:1015A00080460D461646002700F0BEFF0746394626
:1015B0002A46334601F00700C0F1070ABAF1040FCA
:1015C00002D94FF0040A01E0C0F1070AD14600F148
:1015D000040ABAF1070F02D24FF0000A01E0A0F1AD
:1015E000030AD4464FF0010A0AFA09FAAAF1010ADD
:1015F0000AEA020A0AFA0CFA4FF0010B0BFA0CFB8A
:10160000ABF1010B0BEA030B4AEA0B0421464046FF
:1016100000F092FFBDE8F09F00BF00F00702064B0C
:1016200019684FF6FF031940044B0B4343EA0221AC
:10163000014B196000BF70470CED00E00000FA0597
:1016400070B504460D460CB9012070BD58480068BD
:1016500000F00700A84209D255490D7008460068FD
:1016600000F00700A84201D00120EEE7207800F04A
:10167000020002281DD1207800F00400042805D1C2
:101680004C48006840F4E0504A490860207800F077
:101690000800082805D14748006840F460404549E3
:1016A00008604448006820F0F000A1680843414900
:1016B0000860207800F00100A8B36068012807D115
:1016C0003C4808380068C0F34040B8B90120BCE786
:1016D0006068022802D06068032807D135480838BE
:1016E0000068C0F3406048B90120AEE731480838CF
:1016F0000068C0F3400008B90120A6E72D48006843
:1017000020F00300616808432A490860FFF77EFE65
:10171000064609E0FFF77AFE801B41F288318842D5
:1017200002D9032091E707E02248006800F00C008E
:101730006168B0EB810FEDD11D48006800F0070033
:10174000A84209D91A490D700846006800F0070040
:10175000A84201D0012078E7207800F00400042896
:1017600007D11448006820F4E050E16808431149AB
:101770000860207800F00800082808D10D480068AB
:1017800020F46040216940EAC1000A49086000F085
:1017900051F808490968C1F30311074A515CC84070
:1017A0000649086006480068FFF760FE00204CE725
:1017B000003C024008380240B848000824000020DD
:1017C0001C0000200F2202600D4A126802F0030282
:1017D00042600B4A126802F0F0028260084A126806
:1017E00002F4E052C260064A126802F46042D20873
:1017F0000261044A126802F007020A6070470000A2
:1018000008380240003C0240014800687047000070
:101810002400002000B5FFF7F7FF04490968C1F371
:101820008221034A515CC84000BD000008380240D4
:10183000C84800082DE9F047002400250026A146ED
:101840002548006800F00C0020B1042805D00828C5
:101850003AD105E0DFF8849039E0DFF8849036E093
:101860001D48001F006800F03F041B48001F00686F
:1018700000F4800078B11A481749091F0968C1F3BC
:101880008811A0FB01700146224600233846FEF76E
:101890004BFD05460EE011480F49091F0968C1F3C9
:1018A0008811A0FB01700146224600233846FEF74E
:1018B0003BFD05460848001F0068C0F30140401C7E
:1018C0004600B5FBF6F902E0DFF8109000BF00BF5C
:1018D0004846BDE8F0870000083802400024F400C4
:1018E00040787D01F8B504460CB90120F8BD207898
:1018F00000F00100002874D0F948006800F00C00E6
:1019000004280DD0F648006800F00C00082813D118
:10191000F348001F006800F48000B0F5800F0BD181
:10192000EF4808380068C0F34040002859D060688C
:10193000002856D10120D9E700BF6068B0F5803F8C
:1019400008D1E7480838006840F48030E449083995
:1019500008601EE06068B0F5A02F0DD1E04808389F
:10196000006840F48020DE490839086008460068B5
:1019700040F4803008600CE0D9480838006820F452
:101980008030D749083908600846006820F4802074
:10199000086000BF606890B1FFF738FD054606E0BB
:1019A000FFF734FD401B642801D903209EE7CC4893
:1019B00008380068C0F340400028F1D011E0FFF77C
:1019C00025FD054606E0FFF721FD401B642801D9EF
:1019D00003208BE7C24808380068C0F34040002865
:1019E000F1D1207800F0020002285FD1BC480068E5
:1019F00000F00C0058B1BA48006800F00C0008284C
:101A00001CD1B748001F006800F48000B0B9B4488A
:101A100008380068C0F3400020B1E068012801D018
:101A2000012063E7AE480838006820F0F80021691B
:101A300040EAC100AA490839086037E0E06800B30D
:101A40000120A8490860FFF7E1FC054606E0FFF722
:101A5000DDFC401B022801D9032047E7A0480838D5
:101A60000068C0F340000028F1D09D4808380068A5
:101A700020F0F800216940EAC1009949083908605E
:101A800014E0002097490860FFF7C0FC054606E017
:101A9000FFF7BCFC401B022801D9032026E7904831
:101AA00008380068C0F340000028F1D1207800F029
:101AB000080008282CD16069A8B101208A49086073
:101AC000FFF7A4FC054606E0FFF7A0FC401B022838
:101AD00001D903200AE782486C300068C0F3400057
:101AE0000028F1D014E000207F490860FFF78EFC49
:101AF000054606E0FFF78AFC401B022801D90320B7
:101B0000F4E677486C300068C0F340000028F1D15B
:101B1000207800F00400042870D100277048383085
:101B2000006800F0805090B900BF002000906C4821
:101B30003830006840F08050694938310860084604
:101B4000006800F08050009000BF00BF0127674888
:101B5000006800F48070B0B96448006840F4807098
:101B600062490860FFF752FC054606E0FFF74EFCAD
:101B7000401B022801D90320B8E65C48006800F445
:101B800080700028F2D000BFA068012808D1544816
:101B90006830006840F001005149683108601DE07C
:101BA000A06805280DD14E486830006840F0040058
:101BB0004B49683108600846006840F00100086041
:101BC0000CE047486830006820F001004449683163
:101BD00008600846006820F00400086000BFA068A4
:101BE000A8B1FFF713FC054609E0FFF70FFC401B07
:101BF00041F28831884202D9032077E626E038484E
:101C000068300068C0F340000028EED013E0FFF712
:101C1000FDFB054608E0FFF7F9FB401B41F2883168
:101C2000884201D9032061E62D4868300068C0F37E
:101C300040000028EFD1012F07D129483830006833
:101C400020F0805026493831086000BFA069002884
:101C500045D02348006800F00C0008285DD0A0693A
:101C6000022845D100201F490866FFF7CFFB054633
:101C700006E0FFF7CBFB401B022801D9032035E625
:101C8000174808380068C0F340600028F1D1D4E953
:101C900007010843616A40EA81110122A06AC2EB90
:101CA000500041EA00412C20005D41EA00600C49EF
:101CB000091F086001200B490866FFF7A7FB0546CE
:101CC00006E0FFF7A3FB401B022801D903200DE625
:101CD000034808380068C0F340600028F1D049E0AC
:101CE0000838024000004742800E47420070004022
:101CF000002021490866FFF789FB054606E0FFF74B
:101D000085FB401B022801D90320EFE51B48006832
:101D1000C0F340600028F2D12CE0A069012800D176
:101D2000E4E51648001D0668A069012820D006F4E5
:101D30008001E06981421BD106F03F01206A8142A7
:101D400016D147F6C0703040616AB0EB811F0FD1E9
:101D500006F440310122A06AC2EB5000B1EB004F03
:101D600006D106F070612C20005DB1EB006F01D050
:101D70000120BBE50020B9E50000474200380240E1
:101D80007047704710B504460CB9012010BD94F897
:101D90003D0028B9002084F83C00204600F025F8DA
:101DA000022084F83D00211D206800F033FB012053
:101DB00084F8460000BF84F83E0001213F20015511
:101DC000402001554120015500BF00BF012084F88B
:101DD000420043200155442001554520015500BFD4
:101DE000012084F83D000020D0E77047014691F8BB
:101DF0003D00012801D001207047022081F83D00FC
:101E00000868C06840F001000B68D8601A4B086889
:101E100098421BD00868B0F1804F17D0174B086864
:101E2000984213D0164B086898420FD0154B08689B
:101E300098420BD0144B0868984207D0134B08689F
:101E4000984203D0124B086898420CD10868806809
:101E500000F00702062A0CD00868006840F0010074
:101E60000B68186005E00868006840F001000B6826
:101E700018600020C0E7000000000140000400409E
:101E800000080040000C00400004014000400140F8
:101E900000180040704770B504462068C568206887
:101EA000066906F00200022819D105F00200022896
:101EB00015D1401F216808610120207720688069C2
:101EC00000F0030018B12046FFF7E4FF05E02046CC
:101ED00000F097F8204600F095F80020207706F0F3
:101EE0000400042819D105F00400042815D1C043CA
:101EF00021680861022020772068806900F4407022
:101F000018B12046FFF7C6FF05E0204600F079F83B
:101F1000204600F077F80020207706F00800082817
:101F200019D105F00800082815D1C04321680861BF
:101F3000042020772068C06900F0030018B1204613
:101F4000FFF7A8FF05E0204600F05BF8204600F010
:101F500059F80020207706F01000102819D105F05C
:101F60001000102815D1C04321680861082020778F
:101F70002068C06900F4407018B12046FFF78AFF5E
:101F800005E0204600F03DF8204600F03BF8002038
:101F9000207706F0010048B105F0010030B16FF084
:101FA000010021680861204600F02EF806F080004C
:101FB000802809D105F08000802805D1C043216820
:101FC00008612046FFF7DCFE06F04000402809D1FA
:101FD00005F04000402805D1C04321680861204633
:101FE00000F01EF806F02000202809D105F020009E
:101FF000202805D1C043216808612046FFF7C1FEB3
:1020000070BD70477047000010B504460349206852
:10201000884201D1FFF700FA10BD00000020004007
:10202000704700BFFEE7000000B58BB01A481B499F
:10203000086008204860002118488160C1604FF4A2
:10204000803101610901416100210176417681768B
:10205000C17601774177FEF7F1FE08B1FEF777FB15
:1020600000200190029003900490079001200890B6
:10207000002005900120099000200A9001A907483E
:10208000FEF75AFC0548FFF790F802210348FEF7D7
:1020900099FB0BB000BD0000006400403C03002031
:1020A00000B587B01C2206496846FEF7B4F9002146
:1020B000684600F0FFFE0349086007B000BD00005D
:1020C0009C4800080000002008B500BF00200090D8
:1020D0001548006840F00100134908600846006890
:1020E00000F00100009000BF00BF00BF0020009082
:1020F0000846006840F0080008600846006800F0E4
:102100000800009000BF00BF00BF002000900846FC
:10211000006840F0800008600846006800F0800019
:10212000009000BF00BF08BD3038024000BFFEE78E
:1021300000BFFEE730B5039C80ED020AC0ED030A44
:1021400080ED041A018442848384C484DFED051A7F
:10215000C0ED011A002505609FED032B80ED062BD5
:1021600030BD000000000000000000000000000082
:1021700070B52DED108B82B00446F0EE408AB0EEC3
:10218000609A39EE680AF0EE409A19EE900A02F071
:1021900009FB41EC1A0B94ED061BB0EE410AF0EE80
:1021A000610A53EC102B01F031FEC4E90601B4F9C9
:1021B000200002F066F841EC1A0B94ED061BB0EE1D
:1021C000410AF0EE610A53EC102B02F085F805D2BB
:1021D000B4F9200002F055F8C4E90601B4F9220070
:1021E00002F04FF841EC1A0B94ED061BB0EE410AD9
:1021F000F0EE610A53EC102B02F0A8F905D2B4F905
:10220000220002F03EF8C4E90601FFF7FFF8054698
:1022100021686E1A06B9012694ED010A78EEC00A0B
:1022200000EE106AB8EE400A80EE80FA94ED040ADF
:1022300020EE0F0A10EE101A084602F0B3FA41EC35
:102240001A0B94ED030A10EE101A084602F0AAFACF
:1022500041EC1E0B94ED061BB0EE410AF0EE610A54
:1022600053EC102B02F074F841EC1C0B94ED020AB5
:1022700020EE290A10EE101A084602F093FA41ECFB
:102280001D0B53EC1C2B01F0C1FD41EC1B0B53EC5F
:102290001A2B02F09DF9CDE900019DED000B51ECE8
:1022A000100B01F081FD08EE100A2560C4ED018AD3
:1022B000B4F9240000EE100AB8EEC00AB4EEC80A61
:1022C000F1EE10FA07D2B4F9240000EE100AB8EECD
:1022D000C00AB0EE408AB4F9260000EE100AB8EE4B
:1022E000C00AB4EEC80AF1EE10FA07DDB4F9260010
:1022F00000EE100AB8EEC00AB0EE408AB0EE480A0E
:1023000002B0BDEC108B70BD10B500BF502080F343
:102310001188BFF34F8FBFF36F8F00BF01F012FC26
:1023200018B14FF080500449086000BF002080F3CE
:10233000118800BF10BD000004ED00E000B593B0AF
:10234000302107A8FEF799F8142102A8FEF795F8A6
:1023500000BF002001902448006840F080502249CE
:1023600008600846006800F08050019000BF00BF80
:1023700000BF002001901D48006840F480401B49C8
:1023800008600846006800F48040019000BF00BF6C
:102390000220079001200A9010200B9002200D903F
:1023A00000210E9108210F915021109102211191CD
:1023B0000421129107A8FFF795FA08B1FEF7C7F9B3
:1023C0000F20029002200390002004904FF48050D0
:1023D00005900690022102A8FFF732F908B1FEF736
:1023E000B6F913B000BD0000403802400070004054
:1023F0000348006840F4700001490860704700001D
:1024000088ED00E010B50248FFF745FD10BD000063
:102410006403002010B502682B4B98420ED0B0F137
:10242000804F0BD0294B984208D0294B984205D0B9
:10243000284B984202D0284B984203D122F07002D8
:102440004B681A43204B984220D0B0F1804F1DD0EA
:102450001E4B98421AD01E4B984217D01D4B9842E3
:1024600014D01D4B984211D01C4B98420ED01C4BDF
:1024700098420BD01B4B984208D01B4B984205D07A
:102480001A4B984202D01A4B984203D122F4407260
:10249000CB681A4322F080034C6943EA04028B683C
:1024A000C3620B688362084B984202D00A4B984281
:1024B00001D10B690363036843F004030360012344
:1024C0004361026010BD00000000014000040040B4
:1024D00000080040000C00400004014000400140A2
:1024E000004401400048014000180040001C00402A
:1024F0000020004000BFFEE703B4019841000098AF
:1025000050EAC12018BF04204A0D18BF40F0010056
:1025100040F2FF72B2EB515F08BF40F002000128A9
:1025200008BF052002B0704702480068C0F30220CF
:10253000704700000CED00E010B5002804DB0A072E
:10254000130E054A135406E00A07140E034A00F05E
:102550000F031B1FD45410BD00E400E018ED00E091
:1025600010B52F499FED2C1B2DED020B84B0059863
:1025700020F000408842DCBF00209DED040B32DDDE
:102580002849884209D1049840B94FF00100FDF76D
:10259000A3FF00F03DFC06B010BD05DB9DED040B74
:1025A00000F02AFC06B010BD68469DED040B00F05B
:1025B0003BF810F0030011D0012818D09DED021B4C
:1025C0009DED000B02281AD000F04AFA51EC100BD6
:1025D00001F0DEFB06B041EC100B10BD9DED021BBF
:1025E0009DED000B012000F06FFB06B010BD9DEDCE
:1025F000021B9DED000B00F033FA06B010BD012068
:1026000000F062FB51EC100B01F0C2FB06B041EC94
:10261000100B10BD000000000000000000000000D2
:10262000FB21E93F0000F07F2DE9F14F04462DED3D
:10263000020B2DED088B8AB09FEDE70B80ED020BAE
:10264000139EE74826F0004585420ADC9DED120BFB
:10265000002084ED000B0AB0BDEC088B03B0BDE890
:10266000F08FE0489FEDE0AB9FEDE1BBA84247DD76
:10267000E14F9FEDE39B9FEDE48B9DED120B53EC3F
:102680001A2B51EC100B002E1CDD01F0A1FF41ECC8
:10269000100BBD4208D053EC1B2B51EC100B01F07A
:1026A00097FFC4E900010BE053EC192B51EC100B20
:1026B00001F08EFF53EC182B01F08AFFC4E90001F2
:1026C0000120C8E701F0A2FB41EC100BBD4208D08D
:1026D00053EC1B2B51EC100B01F098FBC4E90001EB
:1026E0000BE053EC192B51EC100B01F08FFB53EC6A
:1026F000182B01F08BFBC4E900014FF0FF30AAE773
:10270000C348A84279DB9DED120B51EC100B00F091
:102710009FFB41EC180B9FEDC00B53EC102B01F00D
:1027200017FE9FEDBF1B53EC112B01F06FFB01F067
:1027300079FD074601F0A5FD41EC190B53EC1A2B6E
:1027400001F006FE53EC182B01F036FF41EC180B9C
:1027500053EC1B2B51EC190B01F0FAFDDFF8C8A26A
:1027600041EC100B4FEA15580125FA4453EC102B9D
:1027700051EC180B01F02CFF032DC4E900013DD0F2
:10278000C1F30A5005EB4511A8EB00001139814255
:1027900034DA0AEB051BB0EE48AA9BED000BF0EE15
:1027A00068AA53EC102B51EC190B01F0D1FD41EC50
:1027B0001B0B51EC1A0B53EC1B2B01F009FF41ECE6
:1027C000180B51EC1A0B53EC182B01F001FF53ECD2
:1027D0001B2B01F0FDFE9BED020B41EC1A0B53ECA1
:1027E000102B51EC190B01F0B3FD53EC1A2B01F037
:1027F000EFFE41EC100B6D1CB8E70EE0002EA8BFF9
:102800003846BFF628AF94ED000B51EC100B01F0E9
:10281000BFFAC4E9000178421DE7C6F3130040F493
:10282000801EC6F30A50A0F2F530471100F01F05D4
:10283000C5F12000DDF848B0089000200690079010
:102840000520EC467949002D07EB0002794408BFCA
:1028500051F8221009D051F8223001EB8201AB402F
:102860004A68089922FA01F11943A1FB0E26A1FB3F
:102870000B131A449A4234BF0123002303EB0608CA
:102880000CEB8003D3E901A60E448E4234BF012134
:10289000002192448A4411B1924502D903E0924545
:1028A00001D2012100E00021C3E901A641444CF816
:1028B0002010011EA0F10100C4DC029800F10050BC
:1028C000850F0298DDE903678000DDF8148001F0D0
:1028D000D8FC41EC1A0B304601F0EAFC9FED541B8A
:1028E00053EC112B01F034FD41EC1B0B384601F089
:1028F000DFFC9FED511B53EC112B01F029FD41EC46
:10290000180B404601F0D4FC9FED4D1B53EC112BEE
:1029100001F01EFD41EC190B51EC180B53EC192B77
:1029200001F074FA53EC1B2B01F070FA53EC1A2BE4
:1029300001F06CFACDE90801002008909DED080B2C
:1029400053EC1A2B51EC100B01F042FE53EC1B2BF5
:1029500001F03EFE53EC182B01F03AFE53EC192B1C
:1029600001F02AFE9FED381B53EC112B01F0F0FC17
:102970009FED370B41EC180B53EC102B9DED080B22
:1029800051EC100B01F0E4FC53EC182B01F03EFA73
:102990009FED310B41EC180B53EC102B9DED080B08
:1029A00051EC100B01F0D4FC53EC182B01F02EFA73
:1029B00041EC100B139810F0004F06D06D4251EC13
:1029C000100B01F0E5F941EC100B284684ED000BEB
:1029D00041E60000000000000000000000000000D0
:1029E000FB21E93F7CD9024000004054FB21F93F24
:1029F0003163621A61B4D03DFB21F93F0000000051
:102A00000000601A61B4D03D7370032E8A19A33B95
:102A1000FB2139410000000083C8C96D305FE43FED
:102A2000000000000000E03F92210000E0200000D4
:102A3000000000000000103E000000000000103CFC
:102A4000000000000000103A182D4454FB21F93D0D
:102A50003326A611460B113C00000054FB21F93D22
:102A600010B52DED040B2DED088B82B0B0EE419A20
:102A7000F0EE619A0B9820F000449FED4BABB4F15F
:102A8000795F11DA9DED0A0B51EC100B01F0CAFBD6
:102A9000002801BFB0EE4A0AF0EE6A0A02B0BDECAF
:102AA000088B04BF04B010BD9DED0A0B53EC102B36
:102AB00051EC100B01F04CFC41EC180B3C4806218A
:102AC000B0EE480AF0EE680A784400F081F853EC62
:102AD000182B51EC100B01F03BFC9DED0A0B41EC67
:102AE0001B0B53EC192B51EC100B01F031FC41EC9A
:102AF000190B53EC1B2B51EC180B01F029FC53EC78
:102B0000192B01F065FD9FED2C0B41EC190B53ECDB
:102B1000102B51EC180B01F01BFC41EC100B28485A
:102B2000844210DA53EC192B51EC100B01F050FDDC
:102B300053EC1A2B01F040FD41EC100B02B0BDEC40
:102B4000088B04B010BD1F48A042BCBF9FED1E1BE8
:102B50008DED001B06DBA4F5001001900020009015
:102B60009DED001B51EC100B53EC112B01F030FDCF
:102B70009DED000B41EC180B53EC102B51EC1A0B94
:102B800001F026FD41EC1A0B53EC192B51EC180BFC
:102B900001F01EFD53EC1A2B01F00EFD41EC100B61
:102BA000CCE7000000000000000000000000F03F43
:102BB000041E000000000000000000000000E03FD4
:102BC0003333D33F0000E93F000000000000D23F54
:102BD00070B504462DED028B4D1E00EBC500B0EE26
:102BE000408AF0EE608A90ED000B35F0060017D0B9
:102BF00053EC182B51EC100B01F0AAFB41EC100B1D
:102C00006D1E04EBC50090ED001B51EC100B53EC56
:102C1000112B01F0FBF841EC100B35F00600E7D169
:102C2000022D36D0042D1CD0062D1CBFBDEC028B0E
:102C300070BD53EC182B51EC100B01F089FB94ED97
:102C40000A1B53EC112B01F0E1F853EC182B01F0A7
:102C50007FFB94ED081B53EC112B01F0D7F841ECEE
:102C6000100B53EC182B51EC100B01F071FB94ED91
:102C7000061B53EC112B01F0C9F853EC182B01F093
:102C800067FB94ED040B53EC102B01F0BFF841EC03
:102C9000100B53EC182B51EC100B01F059FB94ED79
:102CA000021B53EC112B01F0B1F853EC182B01F07F
:102CB0004FFB94ED001B53EC112B01F0A7F8BDEC7A
:102CC000028B41EC100B70BD31B504462DED040BA9
:102CD0002DED0A8BB0EE41BAF0EE61BA0B989DED86
:102CE0000A0B20F00040B0F1795F0DDA51EC100BC7
:102CF000FFF702FC042808BF00F09AF89DED0A0BCC
:102D0000BDEC0A8B05B030BD53EC102B51EC100B11
:102D100001F01EFB41EC180B9DED0A0B53EC182B38
:102D200051EC100B01F014FB41EC190B2C48B0EEE8
:102D3000480AF0EE680A05217844FFF749FF9FED45
:102D40002ACBB0EE40AAF0EE60AA9CB353EC1C2B49
:102D500051EC190B01F0FCFA41EC1C0B53EC1A2B53
:102D600051EC190B01F0F4FA9FED210B41EC190B1A
:102D700053EC102B51EC1B0B01F0EAFA53EC192B1E
:102D800001F026FC53EC182B01F0E2FA53EC1B2B5C
:102D900001F01EFC53EC1C2B01F01AFC9DED0A1BEC
:102DA00053EC112B01F008FCBDEC0A8B05B041EC93
:102DB000100B30BDFFE753EC1A2B51EC180B01F050
:102DC000C7FA53EC1C2B01F021F853EC192B01F03E
:102DD000BFFA9DED0A1B53EC112B01F017F8E3E746
:102DE0008C1C000000000000495555555555C5BFC5
:102DF000000000000000E03F10B553EC102B51EC38
:102E0000100B01F003F841EC100B10BD00000000A6
:102E10009FED050B10B553EC102B51EC100B01F08E
:102E2000A9F841EC100B10BD0000000000000000EC
:102E30009FED050B10B553EC102B51EC100B01F06E
:102E400087FA41EC100B10BD0000000000000010DC
:102E500082B0CDE9000121F0004001909DED000B12
:102E600002B051EC100B7047FEF7E2FAFFF766FA7A
:102E7000FFF72AF9FFF7D8F8FFF712F900F015F875
:102E800000BFFEE701460020842901D0CA1C10447F
:102E9000704770B5044625460DB1294600E0012172
:102EA000084600F037FC002070BD10B500F060FC53
:102EB000002010BD7FB504460D46606998B1A06939
:102EC00088B1B4F90800FFF7DDFF0646D4E9051024
:102ED000CDE9006102902B462269D4E9001000F090
:102EE000D3FD039013E0B4F90800FFF7CBFF0646CB
:102EF00003A8CDE90060238A9AB22B46D4E90010DA
:102F000000F090FD012802D0002004B070BD0398AD
:102F1000FBE700002DE9F04105460E461C48076816
:102F20001C480068001D00F0F1FA50B9194800680B
:102F300090F82C10012088401749096881431648F1
:102F40000160681C38B936B112480168091D134880
:102F500000F026FB1AE07C190E4800684460BC4271
:102F600007D20C480168091D0D48006800F0FEFA00
:102F70000CE008480168091D0A48006800F0F6FAEC
:102F800009480068844201D207480460BDE8F08126
:102F90003C00002028000020400000208804002081
:102FA000300000202C0000205800002010B50446FE
:102FB00000F002FB23480068401C224908602248B8
:102FC000006840B9204804600846006801280DD117
:102FD00000F03EF90AE01D48006838B91A48006858
:102FE000C06AE16A884201D817480460184800683E
:102FF000401C1749086094F82C100120884015499E
:103000000968084313490860E16A01EB8101124A2B
:1030100002EB8100211D00F0C3FA00F0F7FA0B4823
:10302000006868B108480068C06AE16A884207D24F
:103030004FF0805009490860BFF34F8FBFF36F8F87
:1030400010BD0000380000202800002044000020AF
:103050005400002040000020AC03002004ED00E0FC
:1030600010B516E000F0A8FA0C48C068C468201D2E
:1030700000F04CFA0A480068401E094908600948F7
:103080000068401E0749086000F0C0FA204600F0C2
:103090000BF8044800680028E4D110BD7404002037
:1030A000380000203400002010B5044694F8510088
:1030B00030B9206B00F0C8FA204600F0C5FA1AE0DB
:1030C00094F85100012803D1204600F0BDFA12E027
:1030D00094F85100022801D1012000E0002050B9ED
:1030E00000BF502080F31188BFF34F8FBFF36F8F65
:1030F00000BF00BFFEE710BD30B54FF47053174856
:1031000000F007042CB1C01D20F00700134C041B75
:103110001B1B0246124C22600024114D6C60D0181B
:10312000083820F007000F4C206000240D4D2D685A
:103130006C600C4D2D682C601146441A4C60094C93
:1031400024680C60084D4C682C60084D4C682C605D
:103150004FF00044064D2C6030BD00009C04002060
:10316000640000206C00002074000020700000202B
:103170008000002000BFFFF773FF064800680128A9
:10318000F9D94FF0805004490860BFF34F8FBFF367
:103190006F8FF0E7AC03002004ED00E02DE9FF5F46
:1031A00081460E469246DDE90E7B109CAAF1010095
:1031B000216B01EB800828F0070808F0070008B928
:1031C000012000E0002050B900BF502080F311889A
:1031D000BFF34F8FBFF36F8F00BF00BFFEE786B115
:1031E000002507E0715D04F134004155705D00B9C0
:1031F00002E06D1C102DF5D300BF002143200155C6
:1032000002E0002084F83400072F00D30627E7628D
:1032100067640020A064201D00F0A5F904F11800E7
:1032200000F0A1F92461C7F10700A06164620020E9
:10323000E06484F8500049464046039A00F050F993
:103240002060BBF1000F01D0CBF80040BDE8FF9F2C
:1032500010B5002407E004EB84010F4A02EB810063
:1032600000F074F9641C072CF5D30C4800F06EF9DB
:103270000B4800F06BF90B4800F068F90A4800F0C1
:1032800065F90A4800F062F90448094908600448F1
:103290000849086010BD0000AC030020380400207D
:1032A0004C040020600400207404002088040020E6
:1032B0002C0000203000002010B50146164800E028
:1032C000006803688B42FBD30246436813448B4279
:1032D00004D143684C682344436001460A464B6866
:1032E00013440468A34211D10C4C03682468A34220
:1032F00008D04B680468646823444B6003681B680B
:103300000B6005E0054B1B680B6001E003680B6078
:10331000884200D0016010BD640000206C000020D5
:103320000A490968096809B9012100E0002121B1B1
:103330004FF0FF31064A116006E004490968C96888
:10334000C868034A41681160704700002C000020E3
:10335000580000200E480068401C08B9012000E019
:10336000002050B900BF502080F31188BFF34F8F69
:10337000BFF36F8F00BF00BFFEE700BF502080F398
:103380001188BFF34F8FBFF36F8F00BF00BFFEE701
:10339000840000202DE9F04104464FF0000800F0C1
:1033A0003FFA4948006808B9FFF7A6FE4748006899
:1033B0002040002870D1D4B1083404F00700B0B127
:1033C00004F00700C0F10800044404F0070008B945
:1033D000012000E0002050B900BF502080F3118888
:1033E000BFF34F8FBFF36F8F00BF00BFFEE7002C0E
:1033F00052D03748006884424ED8364E3046056871
:1034000001E02E462D686868A04202D22868002894
:10341000F7D12D48006885423ED0306800F1080899
:10342000286830606868001B102819D92F1907F028
:10343000070008B9012000E0002050B900BF50206B
:1034400080F31188BFF34F8FBFF36F8F00BF00BFB2
:10345000FEE76868001B78606C603846FFF72CFF59
:103460001B4968680968081A194908600846006815
:1034700019490968884203D215480068164908604E
:10348000124968680968084368600020286013488A
:103490000068401C1149086000F0F8FB08F00700C4
:1034A00008B9012000E0002050B900BF502080F38F
:1034B0001188BFF34F8FBFF36F8F00BF00BFFEE7D0
:1034C0004046BDE8F08100006C0000208000002034
:1034D00070000020640000207400002078000020AC
:1034E000001F4FF080730360001F21F00103036091
:1034F000001F054B036014380260001F6FF00203C9
:1035000003602038704700005533000801460A69FF
:10351000D1E901309860D1E90103586050688842D0
:1035200001D188685060002008611068401E10605A
:1035300010687047034B0360034B0B6080231360DC
:1035400070470000E80000203C01002000F1080165
:1035500041604FF0FF31816000F10801C1600161FD
:1035600000210160704700210161704710B50246DB
:103570000B685C1C0CB9106907E002F1080000E060
:103580004068446824689C42FAD944684C604C689E
:10359000A160886041600A611468641C146010BDF9
:1035A00042684A6093688B609368596091600861D3
:1035B00003685B1C0360704700BF502080F31188D4
:1035C000BFF34F8FBFF36F8F00BF0E480068401CE2
:1035D0000C49086008460068012812D10A480068B2
:1035E000C0B208B9012000E0002050B900BF50204F
:1035F00080F31188BFF34F8FBFF36F8F00BF00BF01
:10360000FEE770478400002004ED00E00D480068EC
:1036100050B900BF502080F31188BFF34F8FBFF324
:103620006F8F00BF00BFFEE706480068401E0549D7
:1036300008600846006820B9002080F3118800BFA8
:1036400000BF70478400002070B506463546002E46
:1036500044D0083D2C46224960680968084008B1FA
:10366000012000E0002050B900BF502080F31188F5
:10367000BFF34F8FBFF36F8F00BF00BFFEE720681F
:1036800008B9012000E0002050B900BF502080F3AD
:103690001188BFF34F8FBFF36F8F00BF00BFFEE7EE
:1036A0000F49606809680840C0B12068B0B90C498A
:1036B000606809688843606000F0B2F80949606892
:1036C00009680844074908602046FFF7F5FD0648E9
:1036D0000068401C0449086000F0D8FA70BD000082
:1036E00080000020700000207C00002000204FF0AF
:1036F000E02108618861064800684FF47A71B0FBE8
:10370000F1F0401E4FF0E02148610720086170474A
:103710002400002070B504460025D4B1124800688A
:1037200008B9012000E0002050B900BF502080F30C
:103730001188BFF34F8FBFF36F8F00BF00BFFEE74D
:1037400000F06EF800212046FFF7E4FB00F09EFA3F
:1037500005463DB94FF0805004490860BFF34F8FD4
:10376000BFF36F8F70BD00006000002004ED00E02B
:1037700010B586B000200590049003AA04A905A8FE
:10378000FFF7D8FE0022DDE904101346CDE9002141
:1037900002901CA11D48039A00F076F91C490860AC
:1037A0000846006808B1012400E00024012C15D16E
:1037B00000BF502080F31188BFF34F8FBFF36F8F8E
:1037C00000BF4FF0FF301349086001201249086024
:1037D00000201249086000F071F810E0601C08B188
:1037E000012000E0002050B900BF502080F3118874
:1037F000BFF34F8FBFF36F8F00BF00BFFEE706B070
:1038000010BD000049444C4500000000753100081F
:103810005C00002058000020440000203C000020F4
:1038200002480068401C01490860704760000020A1
:103830001D48006818B101201C49086032E00020D2
:103840001A4908601A480068B0FA80F0C0F11F01F8
:1038500001EB8100174A52F8200008B1012000E076
:10386000002050B900BF502080F31188BFF34F8F64
:10387000BFF36F8F00BF00BFFEE701EB81020D4B6E
:1038800003EB820042685268426000F1080243681C
:10389000934202D14268526842604268D268064B45
:1038A0001A6000BF70470000600000204C0000203C
:1038B00040000020AC030020280000201CB5524826
:1038C00000685249884201D0012000E0002050B930
:1038D00000BF502080F31188BFF34F8FBFF36F8F6D
:1038E00000BF00BFFEE7484800684849491E8842BB
:1038F00001D0012000E0002050B900BF502080F32B
:103900001188BFF34F8FBFF36F8F00BF00BFFEE77B
:103910003F49084600780190FF200A46107008468B
:10392000007800909DF8000000F0F0009DF8002065
:10393000904201D1012000E0002050B900BF50208A
:1039400080F31188BFF34F8FBFF36F8F00BF00BFAD
:10395000FEE79DF8000000F050002E4A107007208E
:103960002D4A106009E02C480068401E2A4A106069
:103970009DF800004006000E00909DF8000000F049
:1039800080008028EFD024480068C0F10700042898
:1039900001D1012000E0002050B900BF502080F389
:1039A0001188BFF34F8FBFF36F8F00BF00BFFEE7DB
:1039B000194800680002184A10601046008800F498
:1039C000E0601060124A019810700F4820300068C3
:1039D00040F470000C49203108600846006840F04F
:1039E00070400860FFF782FE00200C490860FCF779
:1039F0003FFC0B48006840F0404009490860FCF774
:103A000023FC00201CBD000000ED00E071C20F414E
:103A100000E400E0880000208C00002084000020EA
:103A200034EF00E02DE9FF4F85B080468946174608
:103A3000DDE912ABB800FFF7ADFC064656B15420E5
:103A4000FFF7A8FC04460CB1266304E03046FFF7FC
:103A5000FBFD00E000248CB1002084F85100CDE98A
:103A600000ABCDE902403A4649464046089BFFF785
:103A700095FB2046FFF79AFA012501E04FF0FF354C
:103A8000284609B0BDE8F08F2DE9F04F85B0074614
:103A9000884691469A46DDE90EB6109C0EB101208B
:103AA00000E0002050B900BF502080F31188BFF320
:103AB0004F8FBFF36F8F00BF00BFFEE70CB1012037
:103AC00000E0002050B900BF502080F31188BFF300
:103AD0004F8FBFF36F8F00BF00BFFEE754200390EE
:103AE0000398542801D1012000E0002050B900BF04
:103AF000502080F31188BFF34F8FBFF36F8F00BF4B
:103B000000BFFEE700BFB4B1AEB125462C462E6320
:103B1000022085F85100002004A953464A46CDE909
:103B200000B1CDE9025041463846FFF737FB284641
:103B3000FFF73CFA01E000200490049805B0BDE8CE
:103B4000F08F00002DE9F0414FF000084448006874
:103B500000287CD143480068451C4248056015BBDD
:103B600041480068006808B9012000E0002050B911
:103B700000BF502080F31188BFF34F8FBFF36F8FCA
:103B800000BF00BFFEE7384807683848006836497C
:103B900008603648076036480068401C34490860B1
:103BA000FFF7BEFB00BF3348006885423CD300BF2F
:103BB0002D480068006808B9012000E0002020B10D
:103BC0004FF0FF302B4908602DE027480068C0689F
:103BD000C4686668B54202D22648066023E0201D0C
:103BE000FFF794FCA06A18B104F11800FFF78EFCEF
:103BF00094F82C10012088401F49096808431E4989
:103C00000860E16A01EB81011C4A02EB8100211D81
:103C1000FFF7C6FC1A49E06A0968C96A8842C7D337
:103C20004FF00108C4E700BF15480068C06A00EB08
:103C30008000124951F82000012801D94FF00108F5
:103C40001048006808B14FF0010805E0FFE70E4892
:103C50000068401C0C4908604046BDE8F081000047
:103C6000600000203C0000202C00002030000020DC
:103C7000500000205800002040000020AC0300202D
:103C8000280000204C0000204800002070B50024CF
:103C900000263648006850B900BF502080F31188D4
:103CA000BFF34F8FBFF36F8F00BF00BFFEE7FFF77B
:103CB00083FC2E480068401E2C49086008460068B6
:103CC00000284FD12A48006800284BD024E029481A
:103CD000C068C46804F11800FFF718FC201DFFF746
:103CE00015FC94F82C1001208840234909680843EA
:103CF00021490860E16A01EB8101204A02EB810061
:103D0000211DFFF74DFC1E49E06A0968C96A884217
:103D100002D301201B4908601648006808B9012039
:103D200000E000200028D2D00CB1FFF7F9FA1648C5
:103D3000056865B100BFFFF705FF10B1012011490B
:103D400008606D1E002DF6D100200F4908600D4857
:103D5000006838B1012630070C490860BFF34F8F67
:103D6000BFF36F8FFFF752FC304670BD600000203C
:103D7000380000206004002040000020AC03002038
:103D8000280000204C0000204800002004ED00E046
:103D900081F00041704780F00040704721F0004101
:103DA000704720F00040704721F00042A2F16052BD
:103DB000B2F5801F01F0004328BFD2F17F6C0BD910
:103DC0005FEA001C43EAC20242EB507018BF704722
:103DD00028BF20F001007047B2F5801FBCBF184615
:103DE00070474FEA410C1CF5001F02D2084600F054
:103DF0004FBD70B500F056FB00000089FFF7F6BF1D
:103E00004FF00040A0F580007047000010B591EA27
:103E1000030F48BF83F0004300F1E283841A71EB83
:103E2000030C05D2121943EB0C03001B61EB0C01D0
:103E3000DFF824E14FEA1154A4EB135C1EEA430FB0
:103E400018BF9EEA445F73D023EA0E03DCF1200E14
:103E500021EA045143F4801332D322FA0CFE10EB12
:103E60000E0023FA0CFE41EB0E01CCF1200E03FAFA
:103E70000EFE10EB0E0051F10001B1F5801FCCF1E8
:103E8000200E32D201EB045112FA0EF2BDE81040BE
:103E900058BF7047401C38BF5FEA420218BF7047E6
:103EA000002814BF20F0010041F100014FEA410356
:103EB00013F5001F38BF7047A1F1C04100F040BBAF
:103EC000012A43EB0302ACF1200CDCF11F0E32BFE0
:103ED0004FF0000E23FA0CF310EB030041EB0451FA
:103EE000B4EB115FD0D0A1EB045101F5801149086A
:103EF0005FEA300001EB04510ED350F1000038BFEF
:103F000012FA0EFE08D1BDE81040C9E7401C38BFC8
:103F10005FEA4202CAD1C3E7BDE810404FEA41035D
:103F200013F5001F38BF7047A1F1C04100F008BB76
:103F30009EEA445F08D011EA5E0FBDE8104004BF5E
:103F400001F0004100207047BDE8104070B500F05E
:103F5000A9FA00BF64FBBE3E0000E0FF491058BF55
:103F6000C1F140415B1058BFC3F140438B42EFF3B6
:103F7000008070472DE9C04130B4DFF8A0C23CEAB0
:103F8000111418BF3CEA131400F0EC8081EA030519
:103F90001CEA111444EAD57418BF1CEA131500F08A
:103FA000C780A4EB05044FF0004545EAC12145EA6E
:103FB000C32341EA505143EA525304F17F749942BA
:103FC00004F500344FEAC0204FEAC22208BF9042F5
:103FD00000F09C804FEA13650FF24016765D4FEAC1
:103FE000134506FB05F7C7F1807706FB07F74FEA95
:103FF000D737A7FB03687642C8F58038A7FB06CE03
:1040000038BFA8F1010807FB08E64FF0000EA6FB39
:10401000028CE6FB03CEDCF1000CCEF1004E38BF83
:10402000AEF1010EA6FB0C584FF000074FF0000553
:10403000E6FB0E87A1FB08C6A0FB07CE16EB0E061B
:1040400045F10005E1FB076515F1E04E7EBFA4F5E3
:1040500080345FEA46066D4116F1800745F10005A0
:104060004FEA17274FEA066647EA0567A6F1DE46DC
:10407000B6F1805F4FEA15251FD9384624F0010CB0
:1040800005EBC471BCF1FE6F01EB0C1102D8F0BC62
:10409000BDE8008124425CBF01F5801E9EEAC47F1A
:1040A00002D4F0BCBDE80081244238D4F0BCA1F1B8
:1040B000C041BDE8004100F043BA4FEAD22242EAD3
:1040C00043524FEAD323A7FB02864FEAD02040EAAF
:1040D000415007FB03661EEA0E0F4FEAD12105FB94
:1040E000026658BFA6EB0056B6EB00564FEA520EDA
:1040F0004EEAC37E18EB0E0E56EB530EBDD518EBF1
:1041000002085E417F1C55F10005B6E74FF48015AB
:104110004FF000074FF000064FF00008ADE7F0BC8D
:104120004FF0000001F1C04101F00041BDE8008105
:1041300011EA0C1F0CEA131500D00CE013EA0C1F57
:1041400000F025804FF00000F0BC81EA030101F08F
:104150000041BDE80081F0BCBDE8004181EA0301F7
:1041600000F0EEB9F0BCBDE8004170B500F09AF97E
:10417000097EFC3E00F007B881EA03014FF0000021
:1041800001F00041704781EA030100F0D9B9F0BCA9
:10419000BDE800414FF0000021497047FFFDFBF9E9
:1041A000F7F5F4F2F0EEEDEBE9E8E6E4E3E1E0DE6A
:1041B000DDDBDAD8D7D5D4D3D1D0CFCDCCCBCAC8DC
:1041C000C7C6C5C4C2C1C0BFBEBDBCBBBAB9B8B703
:1041D000B6B5B4B3B2B1B0AFAEADACABAAA9A8A8F6
:1041E000A7A6A5A4A3A3A2A1A09F9F9E9D9C9C9BC4
:1041F0009A9999989797969595949393929191906F
:104200008F8F8E8E8D8C8C8B8B8A898988888787FF
:104210008685858484838382828181800000FF0774
:104220000000F87F4FEA41034FEA5353A3F5806340
:10423000D3F11E03C8BFD3F1210C0CDD4FF00042B7
:1042400042EAC12242EA505232FA03FC8CEAE17C93
:10425000ACEBE1707047102BC4BF0020704703F532
:10426000787CBCF1FF3F04D06FF0004282EA21006D
:10427000704770B500F016F949922480002070470D
:10428000F2E710F0004248BF4042B0FA80F310FA63
:1042900003F10AD0C3F11D0303F580634FEA4150D7
:1042A00002EB035202EBD12170474FF00000704740
:1042B000B0FA80F310FA03F10AD0C3F11D0303F53D
:1042C00080634FEA41504FEA035202EBD12170471D
:1042D0004FF000007047000051EA030C17D41CF5A2
:1042E000801F58BFBCF5801F00F10680994218BF9F
:1042F000704708BF9042704707D711F5801F58BF1D
:1043000013F5801F19D499427047894270471CF5F4
:10431000801F08D5BCF5801FF7D58B4218BF7047AA
:1043200008BF824270474FF4001C1CEB410F38BF9E
:104330001CEB430F01D28B42704770B500F0B2F80E
:10434000922449004FF000514FF08053FFF706BE12
:10435000DFF848C170B51CEA111E1EBF1CEA131518
:104360009EEA0C0F95EA0C0F00F06F8081EA0304BF
:1043700023EA4C134EEAD47E21EA4C1141F4801119
:1043800043F48013AE44A1FB024CA0FB0365AEF1E5
:104390007F7E361955EB0C05A1FB034C4CF1000355
:1043A000A0FB021C16EB0C06654153F10003094209
:1043B00018BF46F0010613F4007F0BD14FEA03311A
:1043C0004FEA0530340341EA155140EA16506FF0C8
:1043D00003020AE04FEAC3214FEAC520F40241EA92
:1043E000555140EA56506FF0020202EB2E4201EBAB
:1043F000025585EACE710AD05FEA440C18BF24F05A
:10440000004450F1000041F1000120EAD47040F274
:10441000FE7C624500D270BDA84214BF4FF08044BC
:104420004FF04044002E08BF0024BEF1806FA8BFAB
:10443000A1F1C041BDE8704080F282804FF00000E1
:1044400001F1C04101F0004170479EEA0C0F0CEAF7
:10445000131518BF95EA0C0F06D04FF0000081EA43
:10446000030E0EF0004170BD00F01CF88900013E03
:1044700000F007B800F009B84FEA430C5FEA5C5C53
:1044800008D081EA030100F05BB84FEA410C5FEA13
:104490005C5CF6D14FF00000014970470000FF0757
:1044A0000000F87F0EF1020E2EF0030E5EF8046B92
:1044B000364205D4012A43EB030515F5001F12D837
:1044C000012841EB010C1CF5001F0CD80ED14FEA5E
:1044D000D17C15F5001F0CEB4C0C0CF1020C08BF45
:1044E0004CEBD37C04E04FF0080C01E04FEAD37CA6
:1044F0000CEB4C0526FA05F606F00706B6F1040C9F
:1045000006D20EEB860CBDE870404CF0010C604703
:10451000DFE80CF0090B02024FF000414FF0000001
:10452000A1F5002170BD19461046012851EB010488
:1045300018BFD4F5001484BF002001F0004170BD05
:104540000808A0F500114FEA3101704753EA010C49
:1045500017D41CF5801F58BFBCF5801F00F10680E2
:104560008B4218BF704708BF8242704707D713F5C8
:10457000801F58BF11F5801F19D48B4270479B4292
:1045800070471CF5801F08D5BCF5801FF7D59942F0
:1045900018BF704708BF904270474FF4001C1CEBD7
:1045A000430F38BF1CEB410F01D2994270470FB443
:1045B0000CBC03BCFFF7C1BE91EA030F10B581F03C
:1045C00000413FF52BAC83F0004300F009B8000038
:1045D00010B591EA030F48BF83F000433FF51EACCE
:1045E000841A71EB030C07D212198CF0004C43EBC8
:1045F0000C03001B61EB0C01DFF8A4E14FEA11543E
:10460000A4EB135C1EEA430F18BF9EEA445F00F060
:10461000B08023EA6E03524221EA0451C3EB6E03D9
:1046200038BF5B1EDCF1200E25D322FA0CFE10EB06
:104630000E0043FA0CFE41EB0E01CCF1200E03FA02
:104640000EFE10EB0E0051F10001CCF1200E29D42A
:1046500012FA0EF201EB0451BDE8104058BF70474A
:10466000401C1CBFB2F1004F704700280CBF491C12
:1046700020F00100704712EB020E43EB030218BF5B
:104680004FF0010E4EEA4202ACF1200CDCF11E0E9E
:1046900054D943FA0CFE10EB0E0051F1FF31CCF16E
:1046A0001E0ED5D50EF1010E12FA0EFE404141EB61
:1046B000010101EB445C5FEA5C5C10D910EBDE7039
:1046C00001EB045138BFBEF1004FBDE8104018BFE8
:1046D000704700280CBF491C20F00100704730D201
:1046E0004FEAD42C11F5001124F400641BD0B1FA68
:1046F00081F20B3AA41AA41ED2F12003914030FAA1
:1047000003F31943904001EBCC71002C01EB0451F1
:10471000BDE81040A8BF704701F1C0414FF0000054
:1047200001F000417047B0FA80F310FA03F100D1B4
:1047300010BDE41A173C4805C90AE4E701EB04512F
:1047400010BD491001EB0451BDE810404FEA3000A4
:1047500002E04FF0000170474A0008BF0042F8D065
:10476000B2F5001F28BF704701F000414FF0000074
:1047700070479EEA445F07D011EA5E0FBDE8104023
:1047800004BF002100207047BDE8104070B5FFF75E
:1047900089FE00BF40DFF63E83F0004110467047BF
:1047A0000000E0FF43004FEAD30C4FEA3C0C4340CB
:1047B0001FBF40070CF1605113F0FE4F70471CF013
:1047C000006F03D100200CF0004170470CF0004353
:1047D00043EA507010B540EACC0000F00EF800BF7C
:1047E000000000924FEA0001FFF7AABE4FF000411F
:1047F0004FF00000A1F5002170470EF1020E2EF0DF
:10480000030E5EF8044B244204D44FEA4102B2F195
:104810007F4F11D84FEA4003B3F17F4F0CD80ED130
:104820004FEAD07CB2F17F4F0CEB4C0C0CF1020C38
:1048300008BF4CEBD17C04E04FF0080C01E04FEADC
:10484000D17C0CEB4C0324FA03F404F00704B4F11C
:10485000040C06D20EEB840CBDE810404CF0010CA9
:104860006047DFE80CF0070802024FF00040A0F5B7
:10487000800010BD0846420018BFD2F1807288BF88
:1048800000F0004010BD4FF04070E1EE100A70479C
:10489000FF2141EAD050C00570470000F0490008F0
:1048A0007505000800000000000000008000000006
:1048B00000000000000000000000000000000000F8
:1048C00001020304060708090000000001020304B6
:1048D0004C5555555555A53F7751C1166CC156BF1E
:1048E0009015CB19A001FA3EAD529C804F7E92BE2E
:1048F000C4B1B4BD9EEE213ED43888BEE9FAA8BD4D
:1049000000004054FB21F93F3163621A61B4D03D8D
:104910000000601A61B4D03D7370032E8A19A33B66
:104920000000002E8A19A33BC14920259A837B39B8
:1049300000000000000000006E83F9A22915444E1B
:10494000D15727FCC0DD34F5999562DB4190433C9B
:10495000AB6351FE61C5BBDE3A6E24B7E0D24D4277
:10496000EA2E49061C92D1091CEB1DFE3EA729B177
:10497000F53582E88444BB2E26709CE9417E5FB405
:1049800039D69139F43953838B5F849C3B28F9BD28
:10499000FF97F81F0F9805DE8B112FEF1F6D0A5A36
:1049A000CF7E366DB709CB27663F464F2DEA5F9E17
:1049B000C7BA27757BF1E5EBF739073DEA92528AD2
:1049C000B15FFB6B085D8D1FA6F810111111813FBF
:1049D000D561C119A0012ABF7DFEB157E31DC73EB5
:1049E000EB9C2B8AE6E55ABE7CD5CF5A3AD9E53DF9
:1049F00043414E5F4449414E5F4A49001C4A00080A
:104A00000000002090000000C4010008AC4A00082B
:104A10009000002070460000E00100080000000047
:104A20000000000000000000000000000000000086
:104A30000000000000000000100000000100000065
:104A40000024F4000000000000000000000000004E
:104A50000000000000000000000000000000000056
:104A60000000000000000000000000000000000046
:104A70000000000000000000000000000000000036
:104A80000000000000000000000000000000000026
:104A90000000000000000000000000000000000016
:0C4AA000AAAAAAAA000000000000000062
:040000050800018965
:00000001FF
